{
    "abi": [
        {
            "type": "constructor",
            "inputs": [
                {
                    "name": "priceFeedAddress",
                    "type": "address",
                    "internalType": "address"
                }
            ],
            "stateMutability": "nonpayable"
        },
        {
            "type": "fallback",
            "stateMutability": "payable"
        },
        {
            "type": "receive",
            "stateMutability": "payable"
        },
        {
            "type": "function",
            "name": "MINIMUM_USD",
            "inputs": [],
            "outputs": [
                {
                    "name": "",
                    "type": "uint256",
                    "internalType": "uint256"
                }
            ],
            "stateMutability": "view"
        },
        {
            "type": "function",
            "name": "addressToAmount",
            "inputs": [
                {
                    "name": "",
                    "type": "address",
                    "internalType": "address"
                }
            ],
            "outputs": [
                {
                    "name": "",
                    "type": "uint256",
                    "internalType": "uint256"
                }
            ],
            "stateMutability": "view"
        },
        {
            "type": "function",
            "name": "addressToAmountFunded",
            "inputs": [
                {
                    "name": "fundingAddress",
                    "type": "address",
                    "internalType": "address"
                }
            ],
            "outputs": [
                {
                    "name": "",
                    "type": "uint256",
                    "internalType": "uint256"
                }
            ],
            "stateMutability": "view"
        },
        {
            "type": "function",
            "name": "fund",
            "inputs": [],
            "outputs": [],
            "stateMutability": "payable"
        },
        {
            "type": "function",
            "name": "getDescription",
            "inputs": [],
            "outputs": [
                {
                    "name": "",
                    "type": "string",
                    "internalType": "string"
                }
            ],
            "stateMutability": "view"
        },
        {
            "type": "function",
            "name": "getFunder",
            "inputs": [
                {
                    "name": "index",
                    "type": "uint256",
                    "internalType": "uint256"
                }
            ],
            "outputs": [
                {
                    "name": "",
                    "type": "address",
                    "internalType": "address"
                }
            ],
            "stateMutability": "view"
        },
        {
            "type": "function",
            "name": "getOwner",
            "inputs": [],
            "outputs": [
                {
                    "name": "",
                    "type": "address",
                    "internalType": "address"
                }
            ],
            "stateMutability": "view"
        },
        {
            "type": "function",
            "name": "getVersion",
            "inputs": [],
            "outputs": [
                {
                    "name": "",
                    "type": "uint256",
                    "internalType": "uint256"
                }
            ],
            "stateMutability": "view"
        },
        {
            "type": "function",
            "name": "withdraw",
            "inputs": [],
            "outputs": [],
            "stateMutability": "nonpayable"
        },
        {
            "type": "error",
            "name": "FundMe__NotOwner",
            "inputs": []
        }
    ],
    "bytecode": {
        "object": "0x60a0604052674563918244f4000060025534801561001c57600080fd5b50604051610fa1380380610fa1833981810160405281019061003e919061011c565b3373ffffffffffffffffffffffffffffffffffffffff1660808173ffffffffffffffffffffffffffffffffffffffff168152505080600360006101000a81548173ffffffffffffffffffffffffffffffffffffffff021916908373ffffffffffffffffffffffffffffffffffffffff16021790555050610149565b600080fd5b600073ffffffffffffffffffffffffffffffffffffffff82169050919050565b60006100e9826100be565b9050919050565b6100f9816100de565b811461010457600080fd5b50565b600081519050610116816100f0565b92915050565b600060208284031215610132576101316100b9565b5b600061014084828501610107565b91505092915050565b608051610e3661016b60003960008181610517015261074d0152610e366000f3fe60806040526004361061008a5760003560e01c80633e47d6f3116100595780633e47d6f31461014d5780636b69a5921461018a578063893d20e8146101b5578063b60d4288146101e0578063d7b4750c146101ea57610099565b80630d8e6e2c146100a35780631a092541146100ce5780633c7e7d28146100f95780633ccfd60b1461013657610099565b3661009957610097610227565b005b6100a1610227565b005b3480156100af57600080fd5b506100b86103c3565b6040516100c591906107d1565b60405180910390f35b3480156100da57600080fd5b506100e3610460565b6040516100f0919061087c565b60405180910390f35b34801561010557600080fd5b50610120600480360381019061011b9190610910565b6104fd565b60405161012d91906107d1565b60405180910390f35b34801561014257600080fd5b5061014b610515565b005b34801561015957600080fd5b50610174600480360381019061016f9190610910565b6106fa565b60405161018191906107d1565b60405180910390f35b34801561019657600080fd5b5061019f610743565b6040516101ac91906107d1565b60405180910390f35b3480156101c157600080fd5b506101ca610749565b6040516101d7919061094c565b60405180910390f35b6101e8610227565b005b3480156101f657600080fd5b50610211600480360381019061020c9190610993565b610771565b60405161021e919061094c565b60405180910390f35b6002543473__$c3448fef39f1c87500bece674ab84308eb$__6321061cc69091600360009054906101000a900473ffffffffffffffffffffffffffffffffffffffff166040518363ffffffff1660e01b8152600401610287929190610a2e565b602060405180830381865af41580156102a4573d6000803e3d6000fd5b505050506040513d601f19601f820116820180604052508101906102c89190610a6c565b11610308576040517f08c379a00000000000000000000000000000000000000000000000000000000081526004016102ff90610ae5565b60405180910390fd5b34600160003373ffffffffffffffffffffffffffffffffffffffff1673ffffffffffffffffffffffffffffffffffffffff16815260200190815260200160002060008282546103579190610b34565b925050819055506000339080600181540180825580915050600190039060005260206000200160009091909190916101000a81548173ffffffffffffffffffffffffffffffffffffffff021916908373ffffffffffffffffffffffffffffffffffffffff160217905550565b600080600360009054906101000a900473ffffffffffffffffffffffffffffffffffffffff1673ffffffffffffffffffffffffffffffffffffffff166354fd4d506040518163ffffffff1660e01b8152600401602060405180830381865afa158015610433573d6000803e3d6000fd5b505050506040513d601f19601f820116820180604052508101906104579190610a6c565b90508091505090565b6060600360009054906101000a900473ffffffffffffffffffffffffffffffffffffffff1673ffffffffffffffffffffffffffffffffffffffff16637284e4166040518163ffffffff1660e01b8152600401600060405180830381865afa1580156104cf573d6000803e3d6000fd5b505050506040513d6000823e3d601f19601f820116820180604052508101906104f89190610c8e565b905090565b60016020528060005260406000206000915090505481565b7f000000000000000000000000000000000000000000000000000000000000000073ffffffffffffffffffffffffffffffffffffffff163373ffffffffffffffffffffffffffffffffffffffff161461059a576040517f579610db00000000000000000000000000000000000000000000000000000000815260040160405180910390fd5b60008080549050905060005b818110156106495760008082815481106105c3576105c2610cd7565b5b9060005260206000200160009054906101000a900473ffffffffffffffffffffffffffffffffffffffff1690506000600160008373ffffffffffffffffffffffffffffffffffffffff1673ffffffffffffffffffffffffffffffffffffffff1681526020019081526020016000208190555050808061064190610d06565b9150506105a6565b5060003373ffffffffffffffffffffffffffffffffffffffff164760405161067090610d7f565b60006040518083038185875af1925050503d80600081146106ad576040519150601f19603f3d011682016040523d82523d6000602084013e6106b2565b606091505b50509050806106f6576040517f08c379a00000000000000000000000000000000000000000000000000000000081526004016106ed90610de0565b60405180910390fd5b5050565b6000600160008373ffffffffffffffffffffffffffffffffffffffff1673ffffffffffffffffffffffffffffffffffffffff168152602001908152602001600020549050919050565b60025481565b60007f0000000000000000000000000000000000000000000000000000000000000000905090565b600080828154811061078657610785610cd7565b5b9060005260206000200160009054906101000a900473ffffffffffffffffffffffffffffffffffffffff169050919050565b6000819050919050565b6107cb816107b8565b82525050565b60006020820190506107e660008301846107c2565b92915050565b600081519050919050565b600082825260208201905092915050565b60005b8381101561082657808201518184015260208101905061080b565b60008484015250505050565b6000601f19601f8301169050919050565b600061084e826107ec565b61085881856107f7565b9350610868818560208601610808565b61087181610832565b840191505092915050565b600060208201905081810360008301526108968184610843565b905092915050565b6000604051905090565b600080fd5b600080fd5b600073ffffffffffffffffffffffffffffffffffffffff82169050919050565b60006108dd826108b2565b9050919050565b6108ed816108d2565b81146108f857600080fd5b50565b60008135905061090a816108e4565b92915050565b600060208284031215610926576109256108a8565b5b6000610934848285016108fb565b91505092915050565b610946816108d2565b82525050565b6000602082019050610961600083018461093d565b92915050565b610970816107b8565b811461097b57600080fd5b50565b60008135905061098d81610967565b92915050565b6000602082840312156109a9576109a86108a8565b5b60006109b78482850161097e565b91505092915050565b6109c9816107b8565b82525050565b6000819050919050565b60006109f46109ef6109ea846108b2565b6109cf565b6108b2565b9050919050565b6000610a06826109d9565b9050919050565b6000610a18826109fb565b9050919050565b610a2881610a0d565b82525050565b6000604082019050610a4360008301856109c0565b610a506020830184610a1f565b9392505050565b600081519050610a6681610967565b92915050565b600060208284031215610a8257610a816108a8565b5b6000610a9084828501610a57565b91505092915050565b7f53656e64206d6f72652065746800000000000000000000000000000000000000600082015250565b6000610acf600d836107f7565b9150610ada82610a99565b602082019050919050565b60006020820190508181036000830152610afe81610ac2565b9050919050565b7f4e487b7100000000000000000000000000000000000000000000000000000000600052601160045260246000fd5b6000610b3f826107b8565b9150610b4a836107b8565b9250828201905080821115610b6257610b61610b05565b5b92915050565b600080fd5b600080fd5b7f4e487b7100000000000000000000000000000000000000000000000000000000600052604160045260246000fd5b610baa82610832565b810181811067ffffffffffffffff82111715610bc957610bc8610b72565b5b80604052505050565b6000610bdc61089e565b9050610be88282610ba1565b919050565b600067ffffffffffffffff821115610c0857610c07610b72565b5b610c1182610832565b9050602081019050919050565b6000610c31610c2c84610bed565b610bd2565b905082815260208101848484011115610c4d57610c4c610b6d565b5b610c58848285610808565b509392505050565b600082601f830112610c7557610c74610b68565b5b8151610c85848260208601610c1e565b91505092915050565b600060208284031215610ca457610ca36108a8565b5b600082015167ffffffffffffffff811115610cc257610cc16108ad565b5b610cce84828501610c60565b91505092915050565b7f4e487b7100000000000000000000000000000000000000000000000000000000600052603260045260246000fd5b6000610d11826107b8565b91507fffffffffffffffffffffffffffffffffffffffffffffffffffffffffffffffff8203610d4357610d42610b05565b5b600182019050919050565b600081905092915050565b50565b6000610d69600083610d4e565b9150610d7482610d59565b600082019050919050565b6000610d8a82610d5c565b9150819050919050565b7f43616c6c206661696c6564000000000000000000000000000000000000000000600082015250565b6000610dca600b836107f7565b9150610dd582610d94565b602082019050919050565b60006020820190508181036000830152610df981610dbd565b905091905056fea264697066735822122000f9a55f85f688fcd87b9e34096a45c93f216de8b4753b88b5d6f6d8ad166fcb64736f6c63430008130033",
        "linkReferences": {
            "src/convertPrice.sol": {
                "ConvertPrice": [
                    {
                        "start": 920,
                        "length": 20
                    }
                ]
            }
        }
    },
    "methodIdentifiers": {
        "MINIMUM_USD()": "6b69a592",
        "addressToAmount(address)": "3c7e7d28",
        "addressToAmountFunded(address)": "3e47d6f3",
        "fund()": "b60d4288",
        "getDescription()": "1a092541",
        "getFunder(uint256)": "d7b4750c",
        "getOwner()": "893d20e8",
        "getVersion()": "0d8e6e2c",
        "withdraw()": "3ccfd60b"
    },
    "id": 23
}